:060000000A128A110E280D
:10000800FE00030EF6000408F7000A08F8000A12BA
:100018008A1135280A128A1111280A128A117F209A
:100028000A128A11F0000A128A1180200A128A1113
:10003800F1000A128A1181200A128A11F2000A12AA
:100048008A1182200A128A11F3000A128A11832067
:100058000A128A11F400FA01FB0183010A128A11BB
:100068007528831203130C1E3A283B2855287A0852
:10007800703E8400000899000130FA070318FB0A53
:100088000030FB0705307A067B04031D4C284D28F9
:100098005528EF30F5007508831603138C05FA010F
:1000A800FB0178088A0077088400760E8300FE0E2C
:1000B8007E0E0900F900831603138717193099007B
:1000C8002030980090308312031398007903031DA1
:1000D8006E286F287428C0308B00831603130C1603
:1000E800080001300A128A115E200A128A117B2840
:1000F8000A128A110E286E34673468346934613400
:02400E007A3DF9
:00000001FF
