:060000000A128A11EC2F28
:1005B60083160313061486140800F100831203132E
:1005C600871071080A128A111E230A128A1108005E
:1005D600F000700883120313930083160313141C90
:1005E600F52AF62AF02A080058348A347A348A34EE
:1005F6008D348A3484348A3465348A3470348A3447
:10060600831603138711071687128512803094000C
:10061600303083120313940008008312031307106B
:100626009F30F000162BF00B152B192B1A2B83126B
:10063600031307140800F0008312031385127008D1
:10064600930083160313141C292B2A2B242B8312A5
:100656000313851608007E088A007F0882000A12A6
:100666008A112E230A128A118000840A04087D0644
:1006760003190034FF0A0319FE0A322BF401F501AF
:10068600701C462B472B4D2B7208F4070318F50AEE
:100696007308F50701300310F20DF30DFF3E031D3D
:1006A6004E2B01300310F10CF00CFF3E031D552BB1
:1006B60070087104031D602B612B432B7508F10034
:1006C6007408F00008007708F1007608F00054304E
:1006D600F2000030F3000A128A1141230A128A112D
:1006E60078087007FA0079080318790A7107FB0081
:1006F60001307B02F83003197A02031C832B842B0A
:10070600852B932B7608403E0A128A11E0220A12A4
:100716008A117808803E0A128A11E0220A128A118A
:10072600080083160313071087100A128A11032381
:100736000A128A110A128A1110230A128A1121300A
:100746000A128A11E0220A128A1113300A128A1139
:10075600E0220A128A1107300A128A11E0220A12CE
:100766008A11C0300A128A11E0220A128A11203038
:100776000A128A11E0220A128A110C300A128A1110
:10078600E0220A128A110800003083120313A00027
:10079600A1000030A200A3003908A4003A08A50071
:1007A600A6010A128A11BF260A128A110130831283
:1007B6000313A0000030A1000030A200A3003B08F4
:1007C600A4003C08A500A601A60A0A128A11BF26A3
:1007D6000A128A11023083120313A0000030A1000E
:1007E6000030A200A3003D08A4003E08A500A60113
:1007F600A60A0A128A11BF260A128A110330831228
:100806000313A0000030A1000030A200A3003F089F
:10081600A4004008A500A601A60A0A128A11BF264E
:100826000A128A11043083120313A0000030A100BB
:100836000030A200A3004108A4004208A500A601BA
:10084600A60A0A128A11BF260A128A1105308312D5
:100856000313A0000030A1000030A200A30043084B
:10086600A4004408A500A601A60A0A128A11BF26FA
:100876000A128A1108000A128A11DB220A128A1148
:100886000A128A1194230A128A110A128A11C7239C
:100896000A128A11831203130618522C532C852C24
:1008A600861C562C572C852C033083120313B80054
:1008B6000830B7007630B600B60B5F2CB70B5F2C4E
:1008C600B80B5F2C00008312031306186B2C6C2CDC
:1008D6004D2C861C6F2C702C4D2C0130C50703182F
:1008E600C60A0030C607063045064604031D7C2CA2
:1008F6007D2C7F2CC501C6010A128A11C0250A1259
:100906008A114D2C061C882C892C4D2C86188C2C73
:100916008D2C4D2C033083120313B8000830B7001A
:100926007630B600B60B952CB70B952CB80B952CDC
:10093600000083120313061CA12CA22C4D2C861832
:10094600A52CA62C4D2CFF30C5070318C60AFF3070
:10095600C607450A031DB32C460A031DB32CB42C47
:10096600B82C0530C5000030C6000A128A11C12411
:100976000A128A114D2C0A128A110028A42D013060
:10098600A0000030A1000030A200A3003B08A40094
:100996003C08A500A601A60A0A128A11BF260A1259
:1009A6008A11003083120313A000A1000030A200B8
:1009B600A3003908A4003A08A500A6010A128A1164
:1009C600BF260A128A11BF2D0230A0000030A100F6
:1009D6000030A200A3003D08A4003E08A500A60121
:1009E600A60A0A128A11BF260A128A110130831238
:1009F6000313A0000030A1000030A200A3003B08B2
:100A0600A4003C08A500A6010A128A11BF260A12F4
:100A16008A11BF2D0330A0000030A1000030A200D3
:100A2600A3003F08A4004008A500A601A60A0A12D2
:100A36008A11BF260A128A11023083120313A000FC
:100A46000030A1000030A200A3003D08A4003E082B
:100A5600A500A6010A128A11BF260A128A11BF2D05
:100A66000430A0000030A1000030A200A30041081D
:100A7600A4004208A500A601A60A0A128A11BF26EA
:100A86000A128A11033083120313A0000030A1005A
:100A96000030A200A3003F08A4004008A500A6015C
:100AA6000A128A11BF260A128A11BF2D0530A0002C
:100AB6000030A1000030A200A3004308A4004408AF
:100AC600A500A601A60A0A128A11BF260A128A11D1
:100AD600043083120313A0000030A1000030A200EE
:100AE600A3004108A4004208A500A6010A128A1123
:100AF600BF260A128A11BF2D0030A000A1000030C7
:100B0600A200A3003908A4003A08A500A601A60A77
:100B16000A128A11BF260A128A110530831203139C
:100B2600A0000030A1000030A200A3004308A400EA
:100B36004408A500A6010A128A11BF260A128A11C4
:100B4600BF2D831203134608003A0319AB2DBF2DA0
:100B56004508003A0319C22C013A0319E72C033A57
:100B660003190D2D013A0319332D073A0319592D8F
:100B7600013A03197F2DBF2D0800A32E0530A000D2
:100B86000030A1000030A200A3004308A4004408DE
:100B9600A500A601A60A0A128A11BF260A128A1100
:100BA600003083120313A000A1000030A200A300AE
:100BB6003908A4003A08A500A6010A128A11BF2620
:100BC6000A128A11BE2E0030A000A1000030A20039
:100BD600A3003908A4003A08A500A601A60A0A122D
:100BE6008A11BF260A128A11013083120313A0004C
:100BF6000030A1000030A200A3003B08A4003C087E
:100C0600A500A6010A128A11BF260A128A11BE2E53
:100C16000130A0000030A1000030A200A3003B0874
:100C2600A4003C08A500A601A60A0A128A11BF263E
:100C36000A128A11023083120313A0000030A100A9
:100C46000030A200A3003D08A4003E08A500A601AE
:100C56000A128A11BF260A128A11BE2E0230A0007D
:100C66000030A1000030A200A3003D08A4003E0809
:100C7600A500A601A60A0A128A11BF260A128A111F
:100C8600033083120313A0000030A1000030A2003D
:100C9600A3003F08A4004008A500A6010A128A1175
:100CA600BF260A128A11BE2E0330A0000030A10012
:100CB6000030A200A3003F08A4004008A500A6013A
:100CC600A60A0A128A11BF260A128A110430831252
:100CD6000313A0000030A1000030A200A3004108C9
:100CE600A4004208A500A6010A128A11BF260A120C
:100CF6008A11BE2E0430A0000030A1000030A200F0
:100D0600A3004108A4004208A500A601A60A0A12EB
:100D16008A11BF260A128A11053083120313A00016
:100D26000030A1000030A200A3004308A40044083C
:100D3600A500A6010A128A11BF260A128A11BE2E22
:100D4600831203134608003A0319AA2EBE2E45083D
:100D5600003A0319C12D013A0319E62D033A031986
:100D66000B2E013A0319312E073A0319572E013A71
:100D760003197D2EBE2E080083120313B201B301A0
:100D86002108F7002008F6002308F9002208F800D9
:100D96000A128A1166230A128A1183120313871410
:100DA60085122603031DD82ED92ECE2F452FB4012A
:100DB600B5018312031332082407A8002508A700EB
:100DC6000318A70AB21FE82EA703831203132708E6
:100DD600A9002908FF00280884000A128A150020A5
:100DE6000A128A11AA00AB012A08F0002B08F100AA
:100DF6000630F2000030F3000A128A1141230A126B
:100E06008A11523083120313AC008730AD0070088C
:100E16002C07AE0071080318710A2D07AF003408BD
:100E26002E07840035080318350A2F07FF000A121B
:100E36008A1500200A128A11B0003008B100310864
:100E46000A128A11EB220A128A1101308312031345
:100E5600B4070318B50A0030B5073508803AFF0015
:100E660080307F02031D392F06303402031C3C2FCD
:100E76003D2FDC2E013083120313B2070318B30A89
:100E86000030B30732082407A8002508A700031876
:100E9600A70AB21F4F2FA703831203132708A9001F
:100EA6002908FF00280884000A128A1500200A1261
:100EB6008A11003A031D602F612FDA2EEA2FB40142
:100EC600B5018312031332082407A8002508A700DA
:100ED6000318A70AB21F702FA7038312031327084C
:100EE600A9002908FF00280884000A128A15002094
:100EF6000A128A11AA00AB012A08F0002B08F10099
:100F06000630F2000030F3000A128A1141230A1259
:100F16008A11523083120313AC008730AD0070087B
:100F26002C07AE0071080318710A2D07AF003408AC
:100F36002E07840035080318350A2F07FF000A120A
:100F46008A1500200A128A11FF3AB0003008B10053
:100F560031080A128A11EB220A128A110130831211
:100F66000313B4070318B50A0030B5073508803AED
:100F7600FF0080307F02031DC22F06303402031C9F
:100F8600C52FC62F642F013083120313B20703182F
:100F9600B30A0030B30732082407A8002508A700C3
:100FA6000318A70AB21FD82FA70383120313270813
:100FB600A9002908FF00280884000A128A150020C3
:100FC6000A128A11003A031DE92FEA2F622F8516AD
:100FD600080083134530FD000230FE00F730FF00A5
:100FE600393084000A128A1132230A128A11C50185
:100FF600C60183010A128A113E2CFF1B0A2883139D
:101006007F1883170008840A0319FF0A08007F085F
:101016007F398A000408840A0319FF0A8200003413
:1010260000340034003400340034003400345F34BB
:1010360000340034003400340734003407340034FC
:10104600003414347F3414347F341434003424349C
:101056002A347F342A3412340034233413340834C7
:1010660064346234003436344934553422345034CE
:1010760000340034053403340034003400340034C2
:101086001C342234413400340034003441342234D8
:101096001C3400340034143408343E340834143418
:1010A6000034083408343E3408340834003400343C
:1010B60050343034003400340034083408340834F2
:1010C60008340834003400346034603400340034AA
:1010D60000342034103408340434023400343E34EE
:1010E6005134493445343E340034003442347F347C
:1010F6004034003400344234613451344934463487
:1011060000342134413445344B34313400341834FE
:10111600143412347F3410340034273445344534C3
:101126004534393400343C344A3449344934303453
:101136000034013471340934053403340034363450
:101146004934493449343634003406344934493450
:1011560029341E3400340034363436340034003436
:101166000034003456343634003400340034083445
:101176001434223441340034003414341434143416
:101186001434143400340034413422341434083412
:101196000034023401345134093406340034323414
:1011A6004934793441343E3400347E3411341134B8
:1011B60011347E3400347F3449344934493436346A
:1011C60000343E34413441344134223400347F34D7
:1011D6004134413422341C3400347F344934493498
:1011E6004934413400347F34093409340934013434
:1011F60000343E344134493449347A3400347F343F
:101206000834083408347F340034003441347F34E1
:101216004134003400342034403441343F34013406
:1012260000347F34083414342234413400347F349B
:10123600403440344034403400347F3402340C347B
:1012460002347F3400347F340434083410347F345D
:1012560000343E344134413441343E3400347F342A
:10126600093409340934063400343E3441345134E7
:1012760021345E3400347F34093419342934463439
:101286000034463449344934493431340034013465
:1012960001347F340134013400343F344034403467
:1012A60040343F3400341F342034403420341F345B
:1012B60000343F344034383440343F3400346334EF
:1012C6001434083414346334003407340834703466
:1012D60008340734003461345134493445344334D6
:1012E600003400347F344134413400340034023455
:1012F600043408341034203400340034413441348A
:101306007F340034003404340234013402340434AB
:1013160000344034403440344034403400340034E7
:101326000134023404340034003420345434543448
:101336005434783400347F344834443444343834B4
:10134600003438344434443444342034003438349B
:101356004434443448347F340034383454345434B8
:1013660054341834003408347E34093401340234D9
:1013760000340C345234523452343E3400347F3408
:1013860008340434043478340034003444347D346E
:101396004034003400342034403444343D34003486
:1013A60000347F341034283444340034003400349C
:1013B60041347F344034003400347C3404341834EF
:1013C6000434783400347C340834043404347834F7
:1013D60000343834443444344434383400347C34AF
:1013E60014341434143408340034083414341434E3
:1013F60018347C3400347C3408340434043408341F
:1014060000344834543454345434203400340434CE
:101416003F3444344034203400343C344034403487
:1014260020347C3400341C342034403420341C34C2
:1014360000343C344034303440343C34003444349A
:10144600283410342834443400340C3450345034A6
:1014560050343C3400344434643454344C344434CE
:101466000034003408343634413400340034003457
:1014760000347F34003400340034003441343634D0
:101486000834003400341034083408341034083476
:1014960000347834463441344634783400340634E3
:1014A60009340934063400340034203454346534A5
:1014B6006D34703465347234613474347534723416
:1014C6006534003420344234613463346B346C3414
:1014D60069346734683474340034203443346F34E8
:1014E6006E3474347234613473347434003420349A
:1014F600483475346D3469346434693474347934F9
:1015060000342034423461347434743465347234B3
:1015160079340034203442346F34743468340034FF
:02400E007A3FF7
:00000001FF
